:03004300020F00A9
:03005300020F0099
:100F00000213A2000213EF000213D9000213C10062
:100F10000212B7000212EE0002004200020052006C
:100F2000020EFF0002145400021455000214560071
:100F300002145700021458000214590002145A00F7
:100F400002145B000200520002145C0002145D00F7
:100F500002145E0002145F000214600002146100BB
:100F6000021462000200520002005200020052000D
:100F70000214630002146400021465000214660087
:100F800002146700021468000214690002146A0067
:100F900002146B0002146C0002146D0002146E0047
:100FA00002146F0002147000021471000214720027
:080FB000021473000214740026
:10106E001201000200000040560403B40000010209
:10107E0000010A06000200000040010009022000E3
:10108E00010100A0320904000002FF000000070564
:10109E00020200020007058602000200090220007B
:1010AE00010100A0320904000002FF000000070544
:1010BE0001024000000705810240000004030904FC
:1010CE001E0341004E0041004C004F00470020001F
:1010DE0044004500560049004300450053003403C8
:1010EE00410044004600340078007800780020006B
:1010FE005500530042002000410064006100700062
:10110E00740065007200200042006F0061007200E2
:04111E006400000069
:0A0046000001020203030404050593
:10094500E4F52CF52BF52AF529C203C200C202C233
:10095500011214057E107F6E8E0A8F0B75121075AD
:10096500138075081075098A7510107511AA75140C
:10097500107515CAEE54E07003020A8B752D0075CB
:100985002E808E2F8F30C374209FFF74119ECF242D
:1009950002CF3400FEE48F288E27F526F525F524B1
:1009A500F523F522F521AF28AE27AD26AC25AB24DE
:1009B500AA23A922A821C31204F55026E52E252431
:1009C500F582E52D3523F58374CDF0E5242401F575
:1009D50024E43523F523E43522F522E43521F521F8
:1009E50080C4E4F524F523F522F521AF28AE27AD23
:1009F50026AC25AB24AA23A922A821C31204F550AD
:100A050033E5302524F582E52F3523F583E0FFE531
:100A15002E2524F582E52D3523F583EFF0E52424F5
:100A250001F524E43523F523E43522F522E43521C7
:100A3500F52180B7852D0A852E0B746E2480FF74F1
:100A45001034FFFEC3E5139FF513E5129EF512C39F
:100A5500E50D9FF50DE50C9EF50CC3E50F9FF50F14
:100A6500E50E9EF50EC3E5099FF509E5089EF50817
:100A7500C3E5119FF511E5109EF510C3E5159FF52A
:100A850015E5149EF514D2E843D82090E668E044B5
:100A950009F090E65CE0443DF0D2AF90E680E020BE
:100AA500E105D20512000390E680E054F7F0538E7D
:100AB500F8C203300105120539C2013003291200BD
:100AC500505024C20312137D20001690E682E030B8
:100AD500E704E020E1EF90E682E030E604E020E084
:0C0AE500E412132512144A12003280C7DC
:1005390090E6B9E070030205EA1470030206672425
:10054900FE70030206EA24FB70030205E41470033B
:100559000205DE14607314607624056003020749FE
:1005690012144C400302075590E6BBE024FE6022BA
:1005790014603324FD601114602224067048E50AD2
:1005890090E6B3F0E50B8037E51290E6B3F0E5139A
:10059900802DE50C90E6B3F0E50D8023E50E90E69D
:1005A900B3F0E50F801990E6BAE0FF121351AA06DD
:1005B900A9077B01EA494B600DEE90E6B3F0EF9095
:1005C900E6B4F002075502074E12142C0207551221
:1005D900143E020755120EF702075512141A0207A4
:1005E9005512144E400302075590E6B8E0247F6087
:1005F9001514601924027063A200E43325E0FFA2F8
:1006090002E4334F8041E490E740F0803F90E6BC3C
:10061900E0547EFF7E00E0D394807C0040047D019D
:1006290080027D00EC4EFEED4F2446F58274003EBB
:10063900F583E493FF3395E0FEEF24A1FFEE34E662
:100649008F82F583E0540190E740F0E4A3F090E64F
:100659008AF090E68B7402F002075502074E1214D5
:1006690050400302075590E6B8E024FE60162402C4
:10067900600302075590E6BAE0B40105C20002071B
:100689005502074E90E6BAE0705590E6BCE0547EFC
:10069900FF7E00E0D394807C0040047D0180027DD0
:1006A90000EC4EFEED4F2446F58274003EF583E4DE
:1006B90093FF3395E0FEEF24A1FFEE34E68F82F538
:1006C90083E054FEF090E6BCE05480131313541FEA
:1006D900FFE0540F2F90E683F0E04420F0806D8016
:1006E90064121452506690E6B8E024FE60192402A0
:1006F900705A90E6BAE0B40104D200804F90E6BA8D
:10070900E064026047803E90E6BCE0547EFF7E00D4
:10071900E0D394807C0040047D0180027D00EC4E92
:10072900FEED4F2446F58274003EF583E493FF33D2
:1007390095E0FEEF24A1FFEE34E68F82F583800871
:1007490012075D500790E6A0E04401F090E6A0E0B2
:030759004480F0E9
:01075C00227A
:030033000214466E
:0414460053D8EF3256
:10140500D20090E600E054E74410F075B2FF758015
:051415009FE4F5B32285
:0100320022AB
:02005000D322B9
:02144A00D322AB
:02144C00D322A9
:080EF70090E6BAE0F555D322A4
:10141A0090E740E555F0E490E68AF090E68B04F018
:02142A00D322CB
:08143E0090E6BAE0F553D32259
:10142C0090E740E553F0E490E68AF090E68B04F008
:02143C00D322B9
:02144E00D322A7
:02145000D322A5
:02145200D322A3
:10075D0090E6B9E0242870030209291470030208F9
:10076D007224FA70030209122402600302094390F5
:10077D00E6B8E06440600302081A90E68AF090E65D
:10078D008BF090E6A0E020E1F990E742E0FFE4FC79
:10079D00FDFEFBFA7901F8120498A804A905AA0632
:1007AD00AB0790E741E0FE90E740E07C002400FFBE
:1007BD00EC3EFEE4FDEB2FFFEA3EFEED39FDEC389D
:1007CD00FCC004C005C006C00790E743E0FFE4FC91
:1007DD00FDFEFBFAF97801120498D003D002D00186
:1007ED00D000EF2BF538EE3AF537ED39F536EC381C
:1007FD00F53590E744E0753300F53485383E85379F
:10080D003D85363C85353BFFAE33120E4190E6B843
:10081D00E064C0600302094390E6A0E020E1F9E442
:10082D00F53190E6BAE0FFE4FCFDFEFBFA7901F844
:10083D00120498A804A905AA06AB07E4FCFDFEEB7B
:10084D002531F538EE3AF537ED39F536EC38F53525
:10085D00AF38AE37AD36FC753D01E4F53E120D3DBA
:10086D008F3202091C90E6B8E06440600302094330
:10087D0090E68AF090E68BF090E6A0E020E1F9900A
:10088D00E742E0FFE4FCFDFEFBFA7901F812049863
:10089D00A804A905AA06AB0790E741E0FE90E74042
:1008AD00E07C002400FFEC3EFEE4FDEB2FFFEA3E72
:1008BD00FEED39FDEC38FCC004C005C006C0079044
:1008CD00E743E0FFE4FCFDFEFBFAF9780112049822
:1008DD00D003D002D001D000EF2BF538EE3AF5372A
:1008ED00ED39F536EC38F53590E744E0753300F524
:1008FD003485383E85373D85363C85353BFFAE33F7
:10090D00120FB8803190E6A0E020E1F91211BCE49D
:10091D0090E68AF090E68B7402F0801AE490E68AF5
:10092D00F090E68BF090E6A0E020E1F990E740E052
:07093D00FF7E00121280C3CF
:010944002290
:1011BC00438001438004E4F53AF53BFB438002E4B1
:1011CC00FF0FBF04FCE53A25E0F53AE5905401FF2A
:1011DC00E48F3FF53EF53DF53CE53A453FFF8F3A50
:1011EC005380FDE4FF0FBF04FC0BBB02CFE4FB43B9
:1011FC008002E4FF0FBF04FCE53B25E0F53BE590E6
:10120C005401FFE48F3FF53EF53DF53CE53B453F92
:10121C00FF8F3B5380FDE4FF0FBF04FC0BBB08CFDB
:0D122C0090E740E53AF0A3E53BF05380FD6C
:011239002292
:101280005380BF5380DFEF64044E70065380BF531A
:1012900080DFEF64144E70065380BF438020EF64FC
:1012A0000C4E70064380405380DFEF641C4E700686
:0712B000438040438020222F
:080D3D008F3C8E3B8D3A8C398E
:100D45004380015380FD5380FE5380FBE4F53FE56E
:100D55003FC3953D4003020E38E53F25E02441F8A9
:100D6500E4F608F6F540E53C5548FFE53B5547FEFA
:100D7500E53A5546FDE5395545FCAB48AA47A94630
:100D8500A845C31204F5700543800480035380FB16
:100D9500AF48AE47AD46AC4578011205068F488E83
:100DA500478D468C45438002E53F25E02441F8E622
:100DB500FE08E625E0FFEE33FEE5905480FDEF4D9D
:100DC500FFE53F25E02441F8A60608A6075380FD68
:100DD500E4FF0FBF04FC0540E54064187088E53F5B
:100DE50025E02441F808E6FFAE3E053E74402EF5A9
:100DF50082E434E7F583EFF0E53F25E02441F8E6AA
:100E0500FEEEFFAE3E053E74402EF582E434E7F576
:100E150083EFF0E53F25E02441F8E6FEEEFFAE3E28
:100E2500053E74402EF582E434E7F583EFF0053F87
:0B0E3500020D545380FD438001AF3ECE
:010E4000228F
:040E41008E398F3A1D
:100E4500AC39AD3AEC1200FB8F4C8E4B8D4A8C4978
:100E55007F007E007D007C40120C26E4FBFAF978C9
:100E6500401200591201348F428E418D408C3F5300
:100E750080FEE4F544C3E544953AE5396480F874A9
:100E850080985053E53E5542FFE53D5541FEE53C12
:100E95005540FDE53B553FFCAB42AA41A940A83F63
:100EA500C31204F5700543800480035380FBAF42F1
:100EB500AE41AD40AC3F78011205068F428E418DA3
:100EC500408C3F438002E4F5430543E543B404F910
:100ED5005380FD0544809EE4F5430543E543B40492
:100EE500F9438001E4F5430543E543B404F9538030
:010EF500FEFE
:010EF60022D9
:040FB8008E398F3AA5
:100FBC00AC39AD3AEC1200FB8F4C8E4B8D4A8C4900
:100FCC007F007E007D007C40120C26E4FBFAF97851
:100FDC00401200591201348F428E418D408C3F5388
:100FEC0080F6E4F544C3E544953AE5396480F87439
:100FFC0080985053E53E5542FFE53D5541FEE53C9A
:10100C005540FDE53B553FFCAB42AA41A940A83FEA
:10101C00C31204F5700543800480035380FBAF4278
:10102C00AE41AD40AC3F78011205068F428E418D2A
:10103C00408C3F438002E4F5430543E543B404F997
:10104C005380FD0544809EE4F5430543E543B40419
:10105C00F9438009E4F5430543E543B404F95380AF
:01106C00F68D
:01106D002260
:1013A200C0E0C083C08290E6B5E04401F0D20153B0
:0F13B20091EF90E65D7401F0D082D083D0E032ED
:1013D900C0E0C083C0825391EF90E65D7404F0D001
:0613E90082D083D0E03247
:1013EF00C0E0C083C0825391EF90E65D7402F0D0ED
:0613FF0082D083D0E03231
:1012B700C0E0C083C08290E680E030E70E85080C6E
:1012C70085090D85100E85110F800C85100C851171
:1012D7000D85080E85090F5391EF90E65D7410F0A8
:0712E700D082D083D0E03279
:1013C100C0E0C083C082D2035391EF90E65D740800
:0813D100F0D082D083D0E0329D
:1012EE00C0E0C083C08290E680E030E70E85080C37
:1012FE0085090D85100E85110F800C85100C85113A
:10130E000D85080E85090F5391EF90E65D7420F060
:07131E00D082D083D0E03241
:01004200328B
:01005200327B
:010EFF0032C0
:011454003265
:011455003264
:011456003263
:011457003262
:011458003261
:011459003260
:01145A00325F
:01145B00325E
:01145C00325D
:01145D00325C
:01145E00325B
:01145F00325A
:011460003259
:011461003258
:011462003257
:011463003256
:011464003255
:011465003254
:011466003253
:011467003252
:011468003251
:011469003250
:01146A00324F
:01146B00324E
:01146C00324D
:01146D00324C
:01146E00324B
:01146F00324A
:011470003249
:011471003248
:011472003247
:011473003246
:011474003245
:1013250090E682E030E004E020E60B90E682E030D3
:10133500E119E030E71590E680E04401F07F147E86
:0C1345000012123A90E680E054FEF02204
:10137D0090E682E044C0F090E681F04387010000E2
:04138D00000000223A
:1000030030050990E680E0440AF0800790E680E03E
:100013004408F07FDC7E0512123A90E65D74FFF02F
:0F00230090E65FF05391EF90E680E054F7F02203
:02135100A907EA
:10135300AE14AF158F828E83A3E064037017AD01C3
:1013630019ED7001228F828E83E07C002FFDEC3E0D
:09137300FEAF0580DF7E007F0063
:01137C00224E
:10123A008E318F3290E600E054187012E5322401A4
:10124A00FFE43531C313F531EF13F532801590E61B
:10125A0000E05418FFBF100BE53225E0F532E53106
:10126A0033F531E5321532AE31700215314E600573
:06127A0012139180EE2228
:101391007400F58690FDA57C05A3E582458370F96F
:0113A1002229
:100056000201AAEC5D046005E8590470030201A0E0
:1000660012016B580460F6EC4860F2EC7004FDFE79
:10007600FF22C860DB2481C85009C398600250067D
:100086000201A79850CAF582E9294B4A7005AB824E
:1000960002019675F0007C1A7880C3EF9BEE9AED0C
:1000A60099400DC3EF9BFFEE9AFEED99FDE842F0F5
:1000B600DC23ACF0D0E0FFD0E0FED0E0FDAB822048
:1000C600E7101BEB60BAEC2CFCEF33FFEE33FEEDD2
:1000D60033FD020182E803F830E705C0F075F00051
:1000E600EF2FFFEE33FEED33FD40B830E7C280AAB6
:1000F60075F020800E75F010800575F0087D007E85
:10010600007F003392D530D5031204E7EC3340105C
:10011600EF33FFEE33FEED33FDEC33FCD5F0ED228D
:0E012600E5F0247EA2D513CC92E7CDCEFF22C9
:10013400EDD2E7CD33EC3392D524814006E4FFFEC3
:10014400FDFC22FCE4CFCECDCC24E0501174FF8022
:10015400EDC3CC13CCCD13CDCE13CECF13CF0470BF
:07016400F030D5DE0204E7D4
:100C26008F488E478D468C45E4FFFE7D807C3FAB2A
:100C360048AA47A946A8451203CD7009AF48AE4752
:100C4600AD46AC4522AF48AE47AD46AC451201B500
:100C5600FBAF4CAE4BAD4AAC491201B5FFBF010824
:100C6600E4FFFE7D807C3F22EF64046022EB640497
:100C7600601DBB0127E4FFFEFDFCAB4CAA4BA94A55
:100C8600A8491203CD60084006E4FFFEFDFC22746D
:100C9600FFF54CF54BF54AF549020D34E4F54DF5F3
:100CA6004EFFFEFDFCAB48AA47A946A8451203CD58
:100CB600504BAF4CAE4BAD4AAC491201348E4D8F02
:100CC6004EAC4DAD4EEC1200FBC8ECC8C9EDC9CA1E
:100CD600EECACBEFCBAF4CAE4BAD4AAC491201D20C
:100CE600E4FBFAF9F81203CD70A5AF48AE47AD465E
:100CF600AC4512043A8F488E478D468C45AF48AEB8
:100D060047AD46AC45120B25AB4CAA4BA94AA849A0
:100D16001202C712115A8F4C8E4B8D4A8C49E54EE2
:100D260030E00B12043A8F4C8E4B8D4A8C49AF4CF7
:070D3600AE4BAD4AAC4922AF
:10016B00E9D2E7C933E833F892D5EDD2E7CD33ECDA
:07017B0033FC5002B2D52253
:10018200EC30E7100FBF000C0EBE00080DBD0004DE
:100192000BEB6014A2D5EB13FCED92E7FD2274FF8A
:1001A200FCFDFEFF22E480F8A2D574FF13FC7D80E3
:0301B200E480EFF7
:1001B500ED33EC33601004700FED547F700574025D
:0A01C50092E2227404220422E422D4
:1001CF000201A0E86480F8E933E83360110460F0BD
:1001DF00ED33EC337009E8FCE9FDEAFEEBFF220496
:1001EF0060DED3EB9FEA9EE99DE8C2E78CF0C2F791
:1001FF0095F0400CE8CCF8E9CDF9EACEFAEBCFFB5D
:10020F0012016B85D0F05804700320D5B3E8047049
:10021F00075002B2D50201AA92D5EC0460F7E4CCE4
:10022F00C0E0C398F8603B94186008400DD0E0FB25
:10023F00020182E4FBFAC9FC8028E830E406E4C935
:10024F00FBE4CAFCE830E305E4C9CACBFCE8540779
:10025F006010F8C3E913F9EA13FAEB13FBEC13FC84
:10026F00D8F130F52FC3E49CFCEF9BFFEE9AFEED27
:10027F0099FDD0E0FBEF4E4D4C701222DB030201D3
:10028F00A7EC2CFCEF33FFEE33FEED33FDED30E743
:10029F00EB020182EF2BFFEE3AFEED39FDD0E0FBD2
:1002AF0050130BBB00030201AAED13FDEE13FEEF7B
:0802BF0013FFEC13FC020182A5
:1002C700EC4D6011E8497017ED33EC3304600DE431
:1002D700FCFFFEFD22E933E8330470F80201A012A7
:1002E700016B58046009E4CC2481500628500902A8
:1002F70001AA2840030201A7C0E0EB4A7044B98075
:1003070006D0E0FB020196EF4E701CBD8008EBFFA4
:10031700EAFEE9FD80EBE98DF0A4FEE5F00203B00B
:10032700E9CDF9EAFEEBFFEF89F0A4FCE5F0CE8911
:10033700F0A42EFFE435F0CD89F0A42DFEE435F0CE
:100347008067EF4E7005BD80D780C3EF8BF0A4ACFC
:10035700F0EE8BF0A42CFCE435F0F8EF8AF0A42C37
:10036700E5F038FCE433CB8DF0A42CFCE5F03BF84A
:10037700EE8AF0A42CFCE5F038F8E433CF89F0A43A
:100387002CFCE5F038CF3400CE89F0A42FFFE5F040
:100397003EFEE433C98DF0A42EFEE5F039CD8AF098
:1003A700A42FFFE5F03EFEE43DFD33D0E0FB500710
:1003B7000BBB000F0201AAEC2CFCEF33FFEE33FE60
:0603C700ED33FD0201828E
:1003CD0074F8CC6480CCC86480C8F582046043C3E3
:1003DD00EB9FF5F0EA9E42F0E99D42F0E89C45F076
:1003ED0060305018E5825FFFE582F42B5582FB509B
:1003FD00210ABA001D09B90019088016E5825BFBB8
:10040D00E582F42F5582FF50090EBE00050DBD008B
:10041D00010CC3EB9FF5F0EA9E42F0E99D42F0E836
:0D042D009C45F06007CC4820E701B3EC22AD
:10043A00ED33EC33600A047003BD8004ECB2E7FCD0
:01044A00228F
:1011220033DA929E35B16011377FE5FE3921848929
:101132003AAEC3FF3C1D955B3D6358473E75FDF0DB
:101142003F3172183F800000C2D50201AA0201A0FD
:10115200BD80FA50F30201A7ED33EC330460F17B5A
:101162003B7AAA79B8783F1202C7ED33EC3392D5B5
:10117200247B5011A2D570DB500BED448024045027
:1011820004A2D580CEEFFBEEFAEDF9ECF8120134B1
:10119200EFF582F404FC1201001201D6C082901114
:1011A20022740912045AED33CC33D0F092D525F0D3
:0A11B200A2D57001C313CC13FD2277
:100AF1003E9248DA3ECCCCCD3F2AAAAB4000000062
:100B01003F8000003F9837F03FB504F33FD744FCE6
:100B11003E3172173EB172173F0515913EDE5BD92A
:100B2100D2058002C205EDD2E7F8CD33EC33047073
:100B31000BBD800592D50201AA0201A040FBD3148E
:100B410060F2F5F07C3FEE7A00C39496C8948B4036
:100B5100230AC89469C8941A401A0AC89468C894A8
:100B61001F40110AC8945AC89425400805F07A001C
:100B7100CDC2E7CDC0F08C4F8D508E518F52EA23FC
:100B810023C0E02401F582E4340BF5831205291218
:100B910001D6ECC0E0EDC0E0EEC0E0EFC0E0120530
:100BA10019A84FA950AA51AB521201D2D0E0FBD0E3
:100BB100E0FAD0E0F9D0E0B2E7F81200598C4F8D9D
:100BC100508E518F52900AF1740312044BA84FA911
:100BD10050AA51AB521202C7D0E0600F240DF5822A
:100BE100E4340BF5831205291201D68C4F8D508EFA
:100BF100518F52D0E0C3947FFDE49400FC1200FBBE
:100C01007B187A727931783F1202C7A84FA950AA8E
:100C110051AB521201D630050B7BD97A5B79DE7864
:050C21003E1202C72293
:10044B00C0E0EFFBEEFAEDF9ECF81202C7D0E0F5E5
:10045B00F0EFFBEEFAEDF9ECF8120519A3A3A3A349
:10046B00E8C0E0E9C0E0EAC0E0EBC0E0C0F0120297
:10047B00C7120529A3A3A3A31201D6D0F0D0E0FB8A
:0D048B00D0E0FAD0E0F9D0E0F8D5F0D422AE
:03000000020036C5
:0C003600787FE4F6D8FD7581740209455E
:10049800E88FF0A4CC8BF0A42CFCE98EF0A42CFC03
:1004A8008AF0EDA42CFCEA8EF0A4CDA8F08BF0A481
:1004B8002DCC3825F0FDE98FF0A42CCD35F0FCEBE0
:1004C8008EF0A4FEA9F0EB8FF0A4CFC5F02ECD39A5
:0F04D800FEE43CFCEAA42DCE35F0FDE43CFC2212
:0E04E700C3E49FFFE49EFEE49DFDE49CFC2226
:1004F500EB9FF5F0EA9E42F0E99D42F0E89C45F05D
:0105050022D3
:10050600E8600FECC313FCED13FDEE13FEEF13FFD3
:03051600D8F122F7
:10051900E493FC740193FD740293FE740393FF2228
:10052900E493F8740193F9740293FA740393FB2228
:00000001FF
