:03004300021000A8
:0300530002100098
:1010000002144C00021499000214830002146B00B5
:10101000020FC300021372000200420002005200DD
:10102000021500000215010002150200021503005E
:10103000021504000215050002150600021507003E
:1010400002150800020052000215090002150A00EC
:1010500002150B0002150C0002150D0002150E0002
:1010600002150F000200520002005200020052005E
:1010700002151000021511000215120002151300CE
:1010800002151400021515000215160002151700AE
:10109000021518000215190002151A0002151B008E
:1010A00002151C0002151D0002151E0002151F006E
:0810B0000215200002152100C9
:1014AF00D20090E600E054E74410F075B2FF75806B
:0514BF009FE4F5B322DB
:0100320022AB
:02005000D322B9
:020FFE00D322FC
:0214F800D322FD
:0814E80090E6BAE0F555D322AD
:1014C40090E740E555F0E490E68AF090E68B04F06E
:0214D400D32221
:0814F00090E6BAE0F553D322A7
:1014D60090E740E553F0E490E68AF090E68B04F05E
:0214E600D3220F
:0214FA00D322FB
:0214FC00D322F9
:0214FE00D322F7
:10075D0090E6B9E02428700302093C1470030208E6
:10076D007D24FA700302091D2402600302095690CC
:10077D00E6B8E06440600302081A90E68AF090E65D
:10078D008BF090E6A0E020E1F990E742E0FFE4FC79
:10079D00FDFEFBFA7901F8120498A804A905AA0632
:1007AD00AB0790E741E0FE90E740E07C002400FFBE
:1007BD00EC3EFEE4FDEB2FFFEA3EFEED39FDEC389D
:1007CD00FCC004C005C006C00790E743E0FFE4FC91
:1007DD00FDFEFBFAF97801120498D003D002D00186
:1007ED00D000EF2BF538EE3AF537ED39F536EC381C
:1007FD00F53590E744E0753300F53485383E85379F
:10080D003D85363C85353BFFAE331210B890E6B8CA
:10081D00E064C0600302095690E6A0E020E1F9E42F
:10082D00F53190E6BAE0FFE4FCFDFEFBFA7901F844
:10083D00120498A804A905AA06AB07E4FCFDFEEB7B
:10084D002531F538EE3AF537ED39F536EC38F53525
:10085D00AF38AE37AD36FC753D01E4F53E120E797D
:10086D008F32E490E68AF090E68B7402F00209561E
:10087D0090E6B8E06440600302095690E68AF09075
:10088D00E68BF090E6A0E020E1F990E742E0FFE48E
:10089D00FCFDFEFBFA7901F8120498A804A905AA3B
:1008AD0006AB0790E741E0FE90E740E07C002400B6
:1008BD00FFEC3EFEE4FDEB2FFFEA3EFEED39FDECD5
:1008CD0038FCC004C005C006C00790E743E0FFE454
:1008DD00FCFDFEFBFAF97801120498D003D002D08A
:1008ED0001D000EF2BF538EE3AF537ED39F536EC52
:1008FD0038F53590E744E0753300F53485383E859D
:10090D00373D85363C85353BFFAE3312116E803950
:10091D0090E6B8E064C0703190E6A0E020E1F912F5
:10092D000C39E490E68AF090E68B7405F0801A900D
:10093D00E6B8E0B44013E490E68AF090E68BF090D0
:0A094D00E6A0E020E1F9121401C356
:01095700227D
:080E79008F3C8E3B8D3A8C3951
:100E81004380015380FD5380FE5380FBE4F53FE531
:100E91003FC3953D4003020F74E53F25E02441F82F
:100EA100E4F608F6F540E53C5548FFE53B5547FEBD
:100EB100E53A5546FDE5395545FCAB48AA47A946F3
:100EC100A845C31204F5700543800480035380FBD9
:100ED100AF48AE47AD46AC4578011205068F488E46
:100EE100478D468C45438002E53F25E02441F8E6E5
:100EF100FE08E625E0FFEE33FEE5905480FDEF4D60
:100F0100FFE53F25E02441F8A60608A6075380FD2A
:100F1100E4FF0FBF04FC0540E54064187088E53F1D
:100F210025E02441F808E6FFAE3E053E74402EF56B
:100F310082E434E7F583EFF0E53F25E02441F8E66C
:100F4100FEEEFFAE3E053E74402EF582E434E7F539
:100F510083EFF0E53F25E02441F8E6FEEEFFAE3EEB
:100F6100053E74402EF582E434E7F583EFF0053F4A
:0B0F7100020E905380FD438001AF3E54
:010F7C002252
:0410B8008E398F3AA4
:1010BC00AC39AD3AEC1200FB8F4C8E4B8D4A8C49FF
:1010CC007F007E007D007C40120D62E4FBFAF97813
:1010DC00401200591201348F428E418D408C3F5387
:1010EC0080FEE4F544C3E544953AE5396480F87430
:1010FC0080985053E53E5542FFE53D5541FEE53C99
:10110C005540FDE53B553FFCAB42AA41A940A83FE9
:10111C00C31204F5700543800480035380FBAF4277
:10112C00AE41AD40AC3F78011205068F428E418D29
:10113C00408C3F438002E4F5430543E543B404F996
:10114C005380FD0544809EE4F5430543E543B40418
:10115C00F9438001E4F5430543E543B404F95380B6
:01116C00FE84
:01116D00225F
:04116E008E398F3AED
:10117200AC39AD3AEC1200FB8F4C8E4B8D4A8C4948
:101182007F007E007D007C40120D62E4FBFAF9785C
:10119200401200591201348F428E418D408C3F53D0
:1011A20080F6E4F544C3E544953AE5396480F87481
:1011B20080985053E53E5542FFE53D5541FEE53CE2
:1011C2005540FDE53B553FFCAB42AA41A940A83F33
:1011D200C31204F5700543800480035380FBAF42C1
:1011E200AE41AD40AC3F78011205068F428E418D73
:1011F200408C3F438002E4F5430543E543B404F9E0
:101202005380FD0544809EE4F5430543E543B40461
:10121200F9438009E4F5430543E543B404F95380F7
:01122200F6D5
:0112230022A8
:100C3900438001438004E4F539F53AF53BF53CF589
:100C49003DFB438002E4FF0FBF04FCE53925E0F5D5
:100C590039E5905401FFE48F41F540F53FF53EE554
:100C6900394541FF8F395380FDE4FF0FBF04FC0B69
:100C7900BB08CFE4FB438002E4FF0FBF04FCE53A65
:100C890025E0F53AE5905401FFE48F41F540F53F41
:100C9900F53EE53A4541FF8F3A5380FDE4FF0FBF2A
:100CA90004FC0BBB08CFE4FB438002E4FF0FBF0445
:100CB900FCE53B25E0F53BE5905401FFE48F41F568
:100CC90040F53FF53EE53B4541FF8F3B5380FDE451
:100CD900FF0FBF04FC0BBB08CFE4FB438002E4FF1A
:100CE9000FBF04FCE53C25E0F53CE5905401FFE429
:100CF9008F41F540F53FF53EE53C4541FF8F3C53BB
:100D090080FDE4FF0FBF04FC0BBB08CFE4FB43806D
:100D190002E4FF0FBF04FCE53D25E0F53DE59054F5
:100D290001FFE48F41F540F53FF53EE53D4541FFC3
:100D39008F3D5380FDE4FF0FBF04FC0BBB05CF9033
:100D4900E740E539F0A3E53AF0A3E53BF0A3E53C3C
:080D5900F0A3E53DF05380FD1D
:010D6100226F
:101401005380EFE4FFFE0FBF00010EEF64044E7046
:10141100F5438010E4FEFF0FBF00010EEF64044EA0
:0514210070F55380EF9F
:0114260022A3
:10144C00C0E0C083C08290E6B5E04401F0D2015305
:0F145C0091EF90E65D7401F0D082D083D0E03242
:10148300C0E0C083C0825391EF90E65D7404F0D056
:0614930082D083D0E0329C
:10149900C0E0C083C0825391EF90E65D7402F0D042
:0614A90082D083D0E03286
:100FC300C0E0C083C08290E680E030E70E85080C65
:100FD30085090D85100E85110F800C85100C851168
:100FE3000D85080E85090F5391EF90E65D7410F09F
:070FF300D082D083D0E03270
:10146B00C0E0C083C082D2035391EF90E65D740855
:08147B00F0D082D083D0E032F2
:10137200C0E0C083C08290E680E030E70E85080CB2
:1013820085090D85100E85110F800C85100C8511B5
:101392000D85080E85090F5391EF90E65D7420F0DC
:0713A200D082D083D0E032BD
:01004200328B
:01005200327B
:0115000032B8
:0115010032B7
:0115020032B6
:0115030032B5
:0115040032B4
:0115050032B3
:0115060032B2
:0115070032B1
:0115080032B0
:0115090032AF
:01150A0032AE
:01150B0032AD
:01150C0032AC
:01150D0032AB
:01150E0032AA
:01150F0032A9
:0115100032A8
:0115110032A7
:0115120032A6
:0115130032A5
:0115140032A4
:0115150032A3
:0115160032A2
:0115170032A1
:0115180032A0
:01151900329F
:01151A00329E
:01151B00329D
:01151C00329C
:01151D00329B
:01151E00329A
:01151F003299
:011520003298
:011521003297
:10122400120100020000004056040DB40000010247
:1012340000010A060002000000400100090220002B
:10124400010100A0320904000002FF0000000705AC
:1012540002020002000705860200020009022000C3
:10126400010100A0320904000002FF00000007058C
:101274000102400000070581024000000403090444
:101284001E0341004E0041004C004F004700200067
:101294004400450056004900430045005300340310
:1012A40041004400460034007800780078002000B3
:1012B40055005300420020004500760061006C0098
:1012C400200042006F0061007200640020002000D2
:0412D40020000000F6
:0A0046000001020203030404050593
:10095800E4F52CF52BF52AF529C203C200C202C220
:10096800011214AF7E127F248E0A8F0B7512127536
:1009780013367508127509407510127511607514D3
:1009880012751580EE54E07003020A9E752D0075ED
:100998002E808E2F8F30C374D69FFF74129ECF2463
:1009A80002CF3400FEE48F288E27F526F525F5249E
:1009B800F523F522F521AF28AE27AD26AC25AB24CB
:1009C800AA23A922A821C31204F55026E52E25241E
:1009D800F582E52D3523F58374CDF0E5242401F562
:1009E80024E43523F523E43522F522E43521F521E5
:1009F80080C4E4F524F523F522F521AF28AE27AD10
:100A080026AC25AB24AA23A922A821C31204F55099
:100A180033E5302524F582E52F3523F583E0FFE51E
:100A28002E2524F582E52D3523F583EFF0E52424E2
:100A380001F524E43523F523E43522F522E43521B4
:100A4800F52180B7852D0A852E0B74242480FF7428
:100A58001234FFFEC3E5139FF513E5129EF512C38A
:100A6800E50D9FF50DE50C9EF50CC3E50F9FF50F01
:100A7800E50E9EF50EC3E5099FF509E5089EF50804
:100A8800C3E5119FF511E5109EF510C3E5159FF517
:100A980015E5149EF514D2E843D82090E668E044A2
:100AA80009F090E65CE0443DF0D2AF90E680E020AB
:100AB800E105D20612000390E680E054F7F0538E69
:100AC800F8C203300105120539C2013003291200AA
:100AD800505024C20312142720001690E682E030FA
:100AE800E704E020E1EF90E682E030E604E020E071
:0C0AF800E41213A9120FFE12003280C796
:1005390090E6B9E070030205EA1470030206672425
:10054900FE70030206EA24FB70030205E41470033B
:100559000205DE14607314607624056003020749FE
:100569001214F8400302075590E6BBE024FE60220E
:1005790014603324FD601114602224067048E50AD2
:1005890090E6B3F0E50B8037E51290E6B3F0E5139A
:10059900802DE50C90E6B3F0E50D8023E50E90E69D
:1005A900B3F0E50F801990E6BAE0FF1213D5AA0659
:1005B900A9077B01EA494B600DEE90E6B3F0EF9095
:1005C900E6B4F002075502074E1214D60207551277
:1005D90014F00207551214E80207551214C4020751
:1005E900551214FA400302075590E6B8E0247F60DB
:1005F9001514601924027063A200E43325E0FFA2F8
:1006090002E4334F8041E490E740F0803F90E6BC3C
:10061900E0547EFF7E00E0D394807C0040047D019D
:1006290080027D00EC4EFEED4F2446F58274003EBB
:10063900F583E493FF3395E0FEEF24A1FFEE34E662
:100649008F82F583E0540190E740F0E4A3F090E64F
:100659008AF090E68B7402F002075502074E1214D5
:10066900FC400302075590E6B8E024FE6016240218
:10067900600302075590E6BAE0B40105C20002071B
:100689005502074E90E6BAE0705590E6BCE0547EFC
:10069900FF7E00E0D394807C0040047D0180027DD0
:1006A90000EC4EFEED4F2446F58274003EF583E4DE
:1006B90093FF3395E0FEEF24A1FFEE34E68F82F538
:1006C90083E054FEF090E6BCE05480131313541FEA
:1006D900FFE0540F2F90E683F0E04420F0806D8016
:1006E900641214FE506690E6B8E024FE60192402F4
:1006F900705A90E6BAE0B40104D200804F90E6BA8D
:10070900E064026047803E90E6BCE0547EFF7E00D4
:10071900E0D394807C0040047D0180027D00EC4E92
:10072900FEED4F2446F58274003EF583E493FF33D2
:1007390095E0FEEF24A1FFEE34E68F82F583800871
:1007490012075D500790E6A0E04401F090E6A0E0B2
:030759004480F0E9
:01075C00227A
:03003300020FFABF
:040FFA0053D8EF32A7
:1013A90090E682E030E004E020E60B90E682E0304F
:1013B900E119E030E71590E680E04401F07F147E02
:0C13C90000120F7D90E680E054FEF02240
:1014270090E682E044C0F090E681F0438701000037
:04143700000000228F
:1000030030060990E680E0440AF0800790E680E03D
:100013004408F07FDC7E05120F7D90E65D74FFF0EF
:0F00230090E65FF05391EF90E680E054F7F02203
:0213D500A90766
:1013D700AE14AF158F828E83A3E064037017AD013F
:1013E70019ED7001228F828E83E07C002FFDEC3E89
:0913F700FEAF0580DF7E007F00DF
:0114000022C9
:100F7D008E318F3290E600E054187012E532240164
:100F8D00FFE43531C313F531EF13F532801590E6DB
:100F9D0000E05418FFBF100BE53225E0F532E531C6
:100FAD0033F531E5321532AE31700215314E600533
:060FBD0012143B80EE223D
:10143B007400F58690FDA57C05A3E582458370F9C4
:01144B00227E
:100056000201AAEC5D046005E8590470030201A0E0
:1000660012016B580460F6EC4860F2EC7004FDFE79
:10007600FF22C860DB2481C85009C398600250067D
:100086000201A79850CAF582E9294B4A7005AB824E
:1000960002019675F0007C1A7880C3EF9BEE9AED0C
:1000A60099400DC3EF9BFFEE9AFEED99FDE842F0F5
:1000B600DC23ACF0D0E0FFD0E0FED0E0FDAB822048
:1000C600E7101BEB60BAEC2CFCEF33FFEE33FEEDD2
:1000D60033FD020182E803F830E705C0F075F00051
:1000E600EF2FFFEE33FEED33FD40B830E7C280AAB6
:1000F60075F020800E75F010800575F0087D007E85
:10010600007F003392D530D5031204E7EC3340105C
:10011600EF33FFEE33FEED33FDEC33FCD5F0ED228D
:0E012600E5F0247EA2D513CC92E7CDCEFF22C9
:10013400EDD2E7CD33EC3392D524814006E4FFFEC3
:10014400FDFC22FCE4CFCECDCC24E0501174FF8022
:10015400EDC3CC13CCCD13CDCE13CECF13CF0470BF
:07016400F030D5DE0204E7D4
:100D62008F488E478D468C45E4FFFE7D807C3FABED
:100D720048AA47A946A8451203CD7009AF48AE4715
:100D8200AD46AC4522AF48AE47AD46AC451201B5C3
:100D9200FBAF4CAE4BAD4AAC491201B5FFBF0108E7
:100DA200E4FFFE7D807C3F22EF64046022EB64045A
:100DB200601DBB0127E4FFFEFDFCAB4CAA4BA94A18
:100DC200A8491203CD60084006E4FFFEFDFC227430
:100DD200FFF54CF54BF54AF549020E70E4F54DF579
:100DE2004EFFFEFDFCAB48AA47A946A8451203CD1B
:100DF200504BAF4CAE4BAD4AAC491201348E4D8FC5
:100E02004EAC4DAD4EEC1200FBC8ECC8C9EDC9CAE0
:100E1200EECACBEFCBAF4CAE4BAD4AAC491201D2CE
:100E2200E4FBFAF9F81203CD70A5AF48AE47AD4620
:100E3200AC4512043A8F488E478D468C45AF48AE7A
:100E420047AD46AC45120B38AB4CAA4BA94AA84950
:100E52001202C71213108F4C8E4B8D4A8C49E54EED
:100E620030E00B12043A8F4C8E4B8D4A8C49AF4CBA
:070E7200AE4BAD4AAC492272
:10016B00E9D2E7C933E833F892D5EDD2E7CD33ECDA
:07017B0033FC5002B2D52253
:10018200EC30E7100FBF000C0EBE00080DBD0004DE
:100192000BEB6014A2D5EB13FCED92E7FD2274FF8A
:1001A200FCFDFEFF22E480F8A2D574FF13FC7D80E3
:0301B200E480EFF7
:1001B500ED33EC33601004700FED547F700574025D
:0A01C50092E2227404220422E422D4
:1001CF000201A0E86480F8E933E83360110460F0BD
:1001DF00ED33EC337009E8FCE9FDEAFEEBFF220496
:1001EF0060DED3EB9FEA9EE99DE8C2E78CF0C2F791
:1001FF0095F0400CE8CCF8E9CDF9EACEFAEBCFFB5D
:10020F0012016B85D0F05804700320D5B3E8047049
:10021F00075002B2D50201AA92D5EC0460F7E4CCE4
:10022F00C0E0C398F8603B94186008400DD0E0FB25
:10023F00020182E4FBFAC9FC8028E830E406E4C935
:10024F00FBE4CAFCE830E305E4C9CACBFCE8540779
:10025F006010F8C3E913F9EA13FAEB13FBEC13FC84
:10026F00D8F130F52FC3E49CFCEF9BFFEE9AFEED27
:10027F0099FDD0E0FBEF4E4D4C701222DB030201D3
:10028F00A7EC2CFCEF33FFEE33FEED33FDED30E743
:10029F00EB020182EF2BFFEE3AFEED39FDD0E0FBD2
:1002AF0050130BBB00030201AAED13FDEE13FEEF7B
:0802BF0013FFEC13FC020182A5
:1002C700EC4D6011E8497017ED33EC3304600DE431
:1002D700FCFFFEFD22E933E8330470F80201A012A7
:1002E700016B58046009E4CC2481500628500902A8
:1002F70001AA2840030201A7C0E0EB4A7044B98075
:1003070006D0E0FB020196EF4E701CBD8008EBFFA4
:10031700EAFEE9FD80EBE98DF0A4FEE5F00203B00B
:10032700E9CDF9EAFEEBFFEF89F0A4FCE5F0CE8911
:10033700F0A42EFFE435F0CD89F0A42DFEE435F0CE
:100347008067EF4E7005BD80D780C3EF8BF0A4ACFC
:10035700F0EE8BF0A42CFCE435F0F8EF8AF0A42C37
:10036700E5F038FCE433CB8DF0A42CFCE5F03BF84A
:10037700EE8AF0A42CFCE5F038F8E433CF89F0A43A
:100387002CFCE5F038CF3400CE89F0A42FFFE5F040
:100397003EFEE433C98DF0A42EFEE5F039CD8AF098
:1003A700A42FFFE5F03EFEE43DFD33D0E0FB500710
:1003B7000BBB000F0201AAEC2CFCEF33FFEE33FE60
:0603C700ED33FD0201828E
:1003CD0074F8CC6480CCC86480C8F582046043C3E3
:1003DD00EB9FF5F0EA9E42F0E99D42F0E89C45F076
:1003ED0060305018E5825FFFE582F42B5582FB509B
:1003FD00210ABA001D09B90019088016E5825BFBB8
:10040D00E582F42F5582FF50090EBE00050DBD008B
:10041D00010CC3EB9FF5F0EA9E42F0E99D42F0E836
:0D042D009C45F06007CC4820E701B3EC22AD
:10043A00ED33EC33600A047003BD8004ECB2E7FCD0
:01044A00228F
:1012D80033DA929E35B16011377FE5FE3921848972
:1012E8003AAEC3FF3C1D955B3D6358473E75FDF024
:1012F8003F3172183F800000C2D50201AA0201A046
:10130800BD80FA50F30201A7ED33EC330460F17BA2
:101318003B7AAA79B8783F1202C7ED33EC3392D5FD
:10132800247B5011A2D570DB500BED44802404506F
:1013380004A2D580CEEFFBEEFAEDF9ECF8120134F9
:10134800EFF582F404FC1201001201D6C08290125B
:10135800D8740912045AED33CC33D0F092D525F065
:0A136800A2D57001C313CC13FD22BF
:100B04003E9248DA3ECCCCCD3F2AAAAB400000004E
:100B14003F8000003F9837F03FB504F33FD744FCD3
:100B24003E3172173EB172173F0515913EDE5BD917
:100B3400D2068002C206EDD2E7F8CD33EC3304705E
:100B44000BBD800592D50201AA0201A040FBD3147B
:100B540060F2F5F07C3FEE7A00C39496C8948B4023
:100B6400230AC89469C8941A401A0AC89468C89495
:100B74001F40110AC8945AC89425400805F07A0009
:100B8400CDC2E7CDC0F08C4F8D508E518F52EA23E9
:100B940023C0E02414F582E4340BF58312052912F2
:100BA40001D6ECC0E0EDC0E0EEC0E0EFC0E012051D
:100BB40019A84FA950AA51AB521201D2D0E0FBD0D0
:100BC400E0FAD0E0F9D0E0B2E7F81200598C4F8D8A
:100BD400508E518F52900B04740312044BA84FA9EA
:100BE40050AA51AB521202C7D0E0600F2420F58204
:100BF400E4340BF5831205291201D68C4F8D508EE7
:100C0400518F52D0E0C3947FFDE49400FC1200FBAA
:100C14007B187A727931783F1202C7A84FA950AA7B
:100C240051AB521201D630060B7BD97A5B79DE7850
:050C34003E1202C72280
:10044B00C0E0EFFBEEFAEDF9ECF81202C7D0E0F5E5
:10045B00F0EFFBEEFAEDF9ECF8120519A3A3A3A349
:10046B00E8C0E0E9C0E0EAC0E0EBC0E0C0F0120297
:10047B00C7120529A3A3A3A31201D6D0F0D0E0FB8A
:0D048B00D0E0FAD0E0F9D0E0F8D5F0D422AE
:03000000020036C5
:0C003600787FE4F6D8FD7581740209584B
:10049800E88FF0A4CC8BF0A42CFCE98EF0A42CFC03
:1004A8008AF0EDA42CFCEA8EF0A4CDA8F08BF0A481
:1004B8002DCC3825F0FDE98FF0A42CCD35F0FCEBE0
:1004C8008EF0A4FEA9F0EB8FF0A4CFC5F02ECD39A5
:0F04D800FEE43CFCEAA42DCE35F0FDE43CFC2212
:0E04E700C3E49FFFE49EFEE49DFDE49CFC2226
:1004F500EB9FF5F0EA9E42F0E99D42F0E89C45F05D
:0105050022D3
:10050600E8600FECC313FCED13FDEE13FEEF13FFD3
:03051600D8F122F7
:10051900E493FC740193FD740293FE740393FF2228
:10052900E493F8740193F9740293FA740393FB2228
:00000001FF
